:020000020000FC
:100000008EC01895189506C01895189518951895CE
:100010001895189505B70F7D05BF03E802BFA89591
:10002000515060407040052F062B072B11F4926051
:10003000B6D0332369F03A9559F4E19908C000E04D
:100040000CBB00270EBB8DBBE29AE19A01C031E0E8
:10005000112309F01A95222309F02A95A03029F4DA
:10006000B1992DC0A1E011E02AC0A13049F41123BB
:1000700031F5B19B02C0A0E022C0A2E018E01FC091
:10008000A23081F4B19B09C08395883008F088279D
:1000900030EA9460A3E083D012C0112381F494600D
:1000A000A3E00DC0A33029F4B19B09C0A4E011E086
:1000B00006C0112321F4A0E0B19BA3E000C0B03042
:1000C00081F491FF05C09D7F20E4B1E0C09A22C079
:1000D00092FF20C09B7FB2E024E0C29A482F439554
:1000E00019C0B13029F42223A9F4C098B0E012C09D
:1000F000B23051F4222371F44A9524E0B3E0C2985F
:10010000442309F4B0E006C0222321F4C29AB2E0ED
:1001100024E000C005B7007205BF889518950FE967
:100120000DBF02E009BF03E003BF05E007BB02E02B
:1001300008BB479A05B7077E05BF992714D01DD085
:10014000BB27AA2722271127332703E802BF27D07E
:100150000FEF08BF789405B7007205BF889505B703
:100160000F7D05BFF8CFE199FECF00270EBBE09AC7
:100170008DB3883008F086E00895C09A02D0C09808
:100180000895082F0395C29A28E11FEF41D0C29825
:100190000A9509F4089528E11FEF3AD0F4CF803092
:1001A00021F450EC63E070E02CC0813021F450EC7D
:1001B00062E170E026C0823021F450E865E270E030
:1001C00020C0833021F450E468E370E01AC084302A
:1001D00021F450E06BE470E014C0853021F450E865
:1001E00060E770E00EC0863021F450E066E970E010
:1001F00008C0873021F450E061EE70E002C086E074
:10020000CECF0895C09A1FEF2CE702D0C098089572
:0802100011502040E9F70895A8
:00000001FF
